{
  "_format": "hh-sol-artifact-1",
  "contractName": "NFTMinter",
  "sourceName": "contracts/NFTMinter.sol",
  "abi": [
    {
      "inputs": [],
      "stateMutability": "nonpayable",
      "type": "constructor"
    },
    {
      "anonymous": false,
      "inputs": [
        {
          "indexed": true,
          "internalType": "address",
          "name": "owner",
          "type": "address"
        },
        {
          "indexed": true,
          "internalType": "address",
          "name": "approved",
          "type": "address"
        },
        {
          "indexed": true,
          "internalType": "uint256",
          "name": "tokenId",
          "type": "uint256"
        }
      ],
      "name": "Approval",
      "type": "event"
    },
    {
      "anonymous": false,
      "inputs": [
        {
          "indexed": true,
          "internalType": "address",
          "name": "owner",
          "type": "address"
        },
        {
          "indexed": true,
          "internalType": "address",
          "name": "operator",
          "type": "address"
        },
        {
          "indexed": false,
          "internalType": "bool",
          "name": "approved",
          "type": "bool"
        }
      ],
      "name": "ApprovalForAll",
      "type": "event"
    },
    {
      "anonymous": false,
      "inputs": [
        {
          "indexed": true,
          "internalType": "address",
          "name": "from",
          "type": "address"
        },
        {
          "indexed": true,
          "internalType": "address",
          "name": "to",
          "type": "address"
        },
        {
          "indexed": true,
          "internalType": "uint256",
          "name": "tokenId",
          "type": "uint256"
        }
      ],
      "name": "Transfer",
      "type": "event"
    },
    {
      "inputs": [
        {
          "internalType": "address",
          "name": "to",
          "type": "address"
        },
        {
          "internalType": "uint256",
          "name": "tokenId",
          "type": "uint256"
        }
      ],
      "name": "approve",
      "outputs": [],
      "stateMutability": "nonpayable",
      "type": "function"
    },
    {
      "inputs": [
        {
          "internalType": "address",
          "name": "owner",
          "type": "address"
        }
      ],
      "name": "balanceOf",
      "outputs": [
        {
          "internalType": "uint256",
          "name": "",
          "type": "uint256"
        }
      ],
      "stateMutability": "view",
      "type": "function"
    },
    {
      "inputs": [
        {
          "internalType": "uint256",
          "name": "tokenId",
          "type": "uint256"
        }
      ],
      "name": "getApproved",
      "outputs": [
        {
          "internalType": "address",
          "name": "",
          "type": "address"
        }
      ],
      "stateMutability": "view",
      "type": "function"
    },
    {
      "inputs": [
        {
          "internalType": "address",
          "name": "owner",
          "type": "address"
        },
        {
          "internalType": "address",
          "name": "operator",
          "type": "address"
        }
      ],
      "name": "isApprovedForAll",
      "outputs": [
        {
          "internalType": "bool",
          "name": "",
          "type": "bool"
        }
      ],
      "stateMutability": "view",
      "type": "function"
    },
    {
      "inputs": [
        {
          "internalType": "string",
          "name": "_uri",
          "type": "string"
        }
      ],
      "name": "mint",
      "outputs": [],
      "stateMutability": "payable",
      "type": "function"
    },
    {
      "inputs": [],
      "name": "mintPrice",
      "outputs": [
        {
          "internalType": "uint256",
          "name": "",
          "type": "uint256"
        }
      ],
      "stateMutability": "view",
      "type": "function"
    },
    {
      "inputs": [],
      "name": "name",
      "outputs": [
        {
          "internalType": "string",
          "name": "",
          "type": "string"
        }
      ],
      "stateMutability": "view",
      "type": "function"
    },
    {
      "inputs": [
        {
          "internalType": "uint256",
          "name": "tokenId",
          "type": "uint256"
        }
      ],
      "name": "ownerOf",
      "outputs": [
        {
          "internalType": "address",
          "name": "",
          "type": "address"
        }
      ],
      "stateMutability": "view",
      "type": "function"
    },
    {
      "inputs": [
        {
          "internalType": "address",
          "name": "from",
          "type": "address"
        },
        {
          "internalType": "address",
          "name": "to",
          "type": "address"
        },
        {
          "internalType": "uint256",
          "name": "tokenId",
          "type": "uint256"
        }
      ],
      "name": "safeTransferFrom",
      "outputs": [],
      "stateMutability": "nonpayable",
      "type": "function"
    },
    {
      "inputs": [
        {
          "internalType": "address",
          "name": "from",
          "type": "address"
        },
        {
          "internalType": "address",
          "name": "to",
          "type": "address"
        },
        {
          "internalType": "uint256",
          "name": "tokenId",
          "type": "uint256"
        },
        {
          "internalType": "bytes",
          "name": "_data",
          "type": "bytes"
        }
      ],
      "name": "safeTransferFrom",
      "outputs": [],
      "stateMutability": "nonpayable",
      "type": "function"
    },
    {
      "inputs": [
        {
          "internalType": "address",
          "name": "operator",
          "type": "address"
        },
        {
          "internalType": "bool",
          "name": "approved",
          "type": "bool"
        }
      ],
      "name": "setApprovalForAll",
      "outputs": [],
      "stateMutability": "nonpayable",
      "type": "function"
    },
    {
      "inputs": [
        {
          "internalType": "bytes4",
          "name": "interfaceId",
          "type": "bytes4"
        }
      ],
      "name": "supportsInterface",
      "outputs": [
        {
          "internalType": "bool",
          "name": "",
          "type": "bool"
        }
      ],
      "stateMutability": "view",
      "type": "function"
    },
    {
      "inputs": [],
      "name": "symbol",
      "outputs": [
        {
          "internalType": "string",
          "name": "",
          "type": "string"
        }
      ],
      "stateMutability": "view",
      "type": "function"
    },
    {
      "inputs": [
        {
          "internalType": "uint256",
          "name": "index",
          "type": "uint256"
        }
      ],
      "name": "tokenByIndex",
      "outputs": [
        {
          "internalType": "uint256",
          "name": "",
          "type": "uint256"
        }
      ],
      "stateMutability": "view",
      "type": "function"
    },
    {
      "inputs": [
        {
          "internalType": "address",
          "name": "owner",
          "type": "address"
        },
        {
          "internalType": "uint256",
          "name": "index",
          "type": "uint256"
        }
      ],
      "name": "tokenOfOwnerByIndex",
      "outputs": [
        {
          "internalType": "uint256",
          "name": "",
          "type": "uint256"
        }
      ],
      "stateMutability": "view",
      "type": "function"
    },
    {
      "inputs": [
        {
          "internalType": "uint256",
          "name": "tokenId",
          "type": "uint256"
        }
      ],
      "name": "tokenURI",
      "outputs": [
        {
          "internalType": "string",
          "name": "",
          "type": "string"
        }
      ],
      "stateMutability": "view",
      "type": "function"
    },
    {
      "inputs": [],
      "name": "totalSupply",
      "outputs": [
        {
          "internalType": "uint256",
          "name": "",
          "type": "uint256"
        }
      ],
      "stateMutability": "view",
      "type": "function"
    },
    {
      "inputs": [
        {
          "internalType": "address",
          "name": "from",
          "type": "address"
        },
        {
          "internalType": "address",
          "name": "to",
          "type": "address"
        },
        {
          "internalType": "uint256",
          "name": "tokenId",
          "type": "uint256"
        }
      ],
      "name": "transferFrom",
      "outputs": [],
      "stateMutability": "nonpayable",
      "type": "function"
    }
  ],
  "bytecode": "0x60806040523480156200001157600080fd5b506040518060400160405280600981526020017f4e46544d696e74657200000000000000000000000000000000000000000000008152506040518060400160405280600381526020017f59544d0000000000000000000000000000000000000000000000000000000000815250816000908051906020019062000096929190620000b8565b508060019080519060200190620000af929190620000b8565b505050620001cd565b828054620000c69062000168565b90600052602060002090601f016020900481019282620000ea576000855562000136565b82601f106200010557805160ff191683800117855562000136565b8280016001018555821562000136579182015b828111156200013557825182559160200191906001019062000118565b5b50905062000145919062000149565b5090565b5b80821115620001645760008160009055506001016200014a565b5090565b600060028204905060018216806200018157607f821691505b602082108114156200019857620001976200019e565b5b50919050565b7f4e487b7100000000000000000000000000000000000000000000000000000000600052602260045260246000fd5b6134ff80620001dd6000396000f3fe6080604052600436106101095760003560e01c80636352211e11610095578063a22cb46511610064578063a22cb465146103a3578063b88d4fde146103cc578063c87b56dd146103f5578063d85d3d2714610432578063e985e9c51461044e57610109565b80636352211e146102d35780636817c76c1461031057806370a082311461033b57806395d89b411461037857610109565b806318160ddd116100dc57806318160ddd146101dc57806323b872dd146102075780632f745c591461023057806342842e0e1461026d5780634f6ccce71461029657610109565b806301ffc9a71461010e57806306fdde031461014b578063081812fc14610176578063095ea7b3146101b3575b600080fd5b34801561011a57600080fd5b5061013560048036038101906101309190612447565b61048b565b60405161014291906128d4565b60405180910390f35b34801561015757600080fd5b5061016061049d565b60405161016d91906128ef565b60405180910390f35b34801561018257600080fd5b5061019d600480360381019061019891906124da565b61052f565b6040516101aa919061286d565b60405180910390f35b3480156101bf57600080fd5b506101da60048036038101906101d5919061240b565b6105b4565b005b3480156101e857600080fd5b506101f16106cc565b6040516101fe9190612b51565b60405180910390f35b34801561021357600080fd5b5061022e60048036038101906102299190612305565b6106d9565b005b34801561023c57600080fd5b506102576004803603810190610252919061240b565b610739565b6040516102649190612b51565b60405180910390f35b34801561027957600080fd5b50610294600480360381019061028f9190612305565b6107de565b005b3480156102a257600080fd5b506102bd60048036038101906102b891906124da565b6107fe565b6040516102ca9190612b51565b60405180910390f35b3480156102df57600080fd5b506102fa60048036038101906102f591906124da565b610895565b604051610307919061286d565b60405180910390f35b34801561031c57600080fd5b50610325610947565b6040516103329190612b51565b60405180910390f35b34801561034757600080fd5b50610362600480360381019061035d91906122a0565b610953565b60405161036f9190612b51565b60405180910390f35b34801561038457600080fd5b5061038d610a0b565b60405161039a91906128ef565b60405180910390f35b3480156103af57600080fd5b506103ca60048036038101906103c591906123cf565b610a9d565b005b3480156103d857600080fd5b506103f360048036038101906103ee9190612354565b610ab3565b005b34801561040157600080fd5b5061041c600480360381019061041791906124da565b610b15565b60405161042991906128ef565b60405180910390f35b61044c60048036038101906104479190612499565b610b27565b005b34801561045a57600080fd5b50610475600480360381019061047091906122c9565b610b4b565b60405161048291906128d4565b60405180910390f35b600061049682610bdf565b9050919050565b6060600080546104ac90612da7565b80601f01602080910402602001604051908101604052809291908181526020018280546104d890612da7565b80156105255780601f106104fa57610100808354040283529160200191610525565b820191906000526020600020905b81548152906001019060200180831161050857829003601f168201915b5050505050905090565b600061053a82610c59565b610579576040517f08c379a000000000000000000000000000000000000000000000000000000000815260040161057090612ab1565b60405180910390fd5b6004600083815260200190815260200160002060009054906101000a900473ffffffffffffffffffffffffffffffffffffffff169050919050565b60006105bf82610895565b90508073ffffffffffffffffffffffffffffffffffffffff168373ffffffffffffffffffffffffffffffffffffffff161415610630576040517f08c379a000000000000000000000000000000000000000000000000000000000815260040161062790612af1565b60405180910390fd5b8073ffffffffffffffffffffffffffffffffffffffff1661064f610cc5565b73ffffffffffffffffffffffffffffffffffffffff16148061067e575061067d81610678610cc5565b610b4b565b5b6106bd576040517f08c379a00000000000000000000000000000000000000000000000000000000081526004016106b4906129f1565b60405180910390fd5b6106c78383610ccd565b505050565b6000600880549050905090565b6106ea6106e4610cc5565b82610d86565b610729576040517f08c379a000000000000000000000000000000000000000000000000000000000815260040161072090612b11565b60405180910390fd5b610734838383610e64565b505050565b600061074483610953565b8210610785576040517f08c379a000000000000000000000000000000000000000000000000000000000815260040161077c90612911565b60405180910390fd5b600660008473ffffffffffffffffffffffffffffffffffffffff1673ffffffffffffffffffffffffffffffffffffffff168152602001908152602001600020600083815260200190815260200160002054905092915050565b6107f983838360405180602001604052806000815250610ab3565b505050565b60006108086106cc565b8210610849576040517f08c379a000000000000000000000000000000000000000000000000000000000815260040161084090612b31565b60405180910390fd5b60088281548110610883577f4e487b7100000000000000000000000000000000000000000000000000000000600052603260045260246000fd5b90600052602060002001549050919050565b6000806002600084815260200190815260200160002060009054906101000a900473ffffffffffffffffffffffffffffffffffffffff169050600073ffffffffffffffffffffffffffffffffffffffff168173ffffffffffffffffffffffffffffffffffffffff16141561093e576040517f08c379a000000000000000000000000000000000000000000000000000000000815260040161093590612a31565b60405180910390fd5b80915050919050565b670de0b6b3a764000081565b60008073ffffffffffffffffffffffffffffffffffffffff168273ffffffffffffffffffffffffffffffffffffffff1614156109c4576040517f08c379a00000000000000000000000000000000000000000000000000000000081526004016109bb90612a11565b60405180910390fd5b600360008373ffffffffffffffffffffffffffffffffffffffff1673ffffffffffffffffffffffffffffffffffffffff168152602001908152602001600020549050919050565b606060018054610a1a90612da7565b80601f0160208091040260200160405190810160405280929190818152602001828054610a4690612da7565b8015610a935780601f10610a6857610100808354040283529160200191610a93565b820191906000526020600020905b815481529060010190602001808311610a7657829003601f168201915b5050505050905090565b610aaf610aa8610cc5565b83836110cb565b5050565b610ac4610abe610cc5565b83610d86565b610b03576040517f08c379a0000000000000000000000000000000000000000000000000000000008152600401610afa90612b11565b60405180910390fd5b610b0f84848484611238565b50505050565b6060610b2082611294565b9050919050565b6000610b316106cc565b9050610b3d33826113e6565b610b478183611404565b5050565b6000600560008473ffffffffffffffffffffffffffffffffffffffff1673ffffffffffffffffffffffffffffffffffffffff16815260200190815260200160002060008373ffffffffffffffffffffffffffffffffffffffff1673ffffffffffffffffffffffffffffffffffffffff16815260200190815260200160002060009054906101000a900460ff16905092915050565b60007f780e9d63000000000000000000000000000000000000000000000000000000007bffffffffffffffffffffffffffffffffffffffffffffffffffffffff1916827bffffffffffffffffffffffffffffffffffffffffffffffffffffffff19161480610c525750610c5182611478565b5b9050919050565b60008073ffffffffffffffffffffffffffffffffffffffff166002600084815260200190815260200160002060009054906101000a900473ffffffffffffffffffffffffffffffffffffffff1673ffffffffffffffffffffffffffffffffffffffff1614159050919050565b600033905090565b816004600083815260200190815260200160002060006101000a81548173ffffffffffffffffffffffffffffffffffffffff021916908373ffffffffffffffffffffffffffffffffffffffff160217905550808273ffffffffffffffffffffffffffffffffffffffff16610d4083610895565b73ffffffffffffffffffffffffffffffffffffffff167f8c5be1e5ebec7d5bd14f71427d1e84f3dd0314c0f7b2291e5b200ac8c7c3b92560405160405180910390a45050565b6000610d9182610c59565b610dd0576040517f08c379a0000000000000000000000000000000000000000000000000000000008152600401610dc7906129d1565b60405180910390fd5b6000610ddb83610895565b90508073ffffffffffffffffffffffffffffffffffffffff168473ffffffffffffffffffffffffffffffffffffffff161480610e1d5750610e1c8185610b4b565b5b80610e5b57508373ffffffffffffffffffffffffffffffffffffffff16610e438461052f565b73ffffffffffffffffffffffffffffffffffffffff16145b91505092915050565b8273ffffffffffffffffffffffffffffffffffffffff16610e8482610895565b73ffffffffffffffffffffffffffffffffffffffff1614610eda576040517f08c379a0000000000000000000000000000000000000000000000000000000008152600401610ed190612951565b60405180910390fd5b600073ffffffffffffffffffffffffffffffffffffffff168273ffffffffffffffffffffffffffffffffffffffff161415610f4a576040517f08c379a0000000000000000000000000000000000000000000000000000000008152600401610f4190612991565b60405180910390fd5b610f5583838361155a565b610f60600082610ccd565b6001600360008573ffffffffffffffffffffffffffffffffffffffff1673ffffffffffffffffffffffffffffffffffffffff1681526020019081526020016000206000828254610fb09190612cbd565b925050819055506001600360008473ffffffffffffffffffffffffffffffffffffffff1673ffffffffffffffffffffffffffffffffffffffff16815260200190815260200160002060008282546110079190612c36565b92505081905550816002600083815260200190815260200160002060006101000a81548173ffffffffffffffffffffffffffffffffffffffff021916908373ffffffffffffffffffffffffffffffffffffffff160217905550808273ffffffffffffffffffffffffffffffffffffffff168473ffffffffffffffffffffffffffffffffffffffff167fddf252ad1be2c89b69c2b068fc378daa952ba7f163c4a11628f55a4df523b3ef60405160405180910390a46110c683838361156a565b505050565b8173ffffffffffffffffffffffffffffffffffffffff168373ffffffffffffffffffffffffffffffffffffffff16141561113a576040517f08c379a0000000000000000000000000000000000000000000000000000000008152600401611131906129b1565b60405180910390fd5b80600560008573ffffffffffffffffffffffffffffffffffffffff1673ffffffffffffffffffffffffffffffffffffffff16815260200190815260200160002060008473ffffffffffffffffffffffffffffffffffffffff1673ffffffffffffffffffffffffffffffffffffffff16815260200190815260200160002060006101000a81548160ff0219169083151502179055508173ffffffffffffffffffffffffffffffffffffffff168373ffffffffffffffffffffffffffffffffffffffff167f17307eab39ab6107e8899845ad3d59bd9653f200f220920489ca2b5937696c318360405161122b91906128d4565b60405180910390a3505050565b611243848484610e64565b61124f8484848461156f565b61128e576040517f08c379a000000000000000000000000000000000000000000000000000000000815260040161128590612931565b60405180910390fd5b50505050565b606061129f82610c59565b6112de576040517f08c379a00000000000000000000000000000000000000000000000000000000081526004016112d590612a91565b60405180910390fd5b6000600a600084815260200190815260200160002080546112fe90612da7565b80601f016020809104026020016040519081016040528092919081815260200182805461132a90612da7565b80156113775780601f1061134c57610100808354040283529160200191611377565b820191906000526020600020905b81548152906001019060200180831161135a57829003601f168201915b505050505090506000611388611706565b905060008151141561139e5781925050506113e1565b6000825111156113d35780826040516020016113bb929190612849565b604051602081830303815290604052925050506113e1565b6113dc8461171d565b925050505b919050565b6114008282604051806020016040528060008152506117c4565b5050565b61140d82610c59565b61144c576040517f08c379a000000000000000000000000000000000000000000000000000000000815260040161144390612a51565b60405180910390fd5b80600a600084815260200190815260200160002090805190602001906114739291906120c4565b505050565b60007f80ac58cd000000000000000000000000000000000000000000000000000000007bffffffffffffffffffffffffffffffffffffffffffffffffffffffff1916827bffffffffffffffffffffffffffffffffffffffffffffffffffffffff1916148061154357507f5b5e139f000000000000000000000000000000000000000000000000000000007bffffffffffffffffffffffffffffffffffffffffffffffffffffffff1916827bffffffffffffffffffffffffffffffffffffffffffffffffffffffff1916145b8061155357506115528261181f565b5b9050919050565b611565838383611889565b505050565b505050565b60006115908473ffffffffffffffffffffffffffffffffffffffff1661199d565b156116f9578373ffffffffffffffffffffffffffffffffffffffff1663150b7a026115b9610cc5565b8786866040518563ffffffff1660e01b81526004016115db9493929190612888565b602060405180830381600087803b1580156115f557600080fd5b505af192505050801561162657506040513d601f19601f820116820180604052508101906116239190612470565b60015b6116a9573d8060008114611656576040519150601f19603f3d011682016040523d82523d6000602084013e61165b565b606091505b506000815114156116a1576040517f08c379a000000000000000000000000000000000000000000000000000000000815260040161169890612931565b60405180910390fd5b805181602001fd5b63150b7a0260e01b7bffffffffffffffffffffffffffffffffffffffffffffffffffffffff1916817bffffffffffffffffffffffffffffffffffffffffffffffffffffffff1916149150506116fe565b600190505b949350505050565b606060405180602001604052806000815250905090565b606061172882610c59565b611767576040517f08c379a000000000000000000000000000000000000000000000000000000000815260040161175e90612ad1565b60405180910390fd5b6000611771611706565b9050600081511161179157604051806020016040528060008152506117bc565b8061179b846119c0565b6040516020016117ac929190612849565b6040516020818303038152906040525b915050919050565b6117ce8383611b6d565b6117db600084848461156f565b61181a576040517f08c379a000000000000000000000000000000000000000000000000000000000815260040161181190612931565b60405180910390fd5b505050565b60007f01ffc9a7000000000000000000000000000000000000000000000000000000007bffffffffffffffffffffffffffffffffffffffffffffffffffffffff1916827bffffffffffffffffffffffffffffffffffffffffffffffffffffffff1916149050919050565b611894838383611d47565b600073ffffffffffffffffffffffffffffffffffffffff168373ffffffffffffffffffffffffffffffffffffffff1614156118d7576118d281611d4c565b611916565b8173ffffffffffffffffffffffffffffffffffffffff168373ffffffffffffffffffffffffffffffffffffffff1614611915576119148382611d95565b5b5b600073ffffffffffffffffffffffffffffffffffffffff168273ffffffffffffffffffffffffffffffffffffffff1614156119595761195481611f02565b611998565b8273ffffffffffffffffffffffffffffffffffffffff168273ffffffffffffffffffffffffffffffffffffffff1614611997576119968282612045565b5b5b505050565b6000808273ffffffffffffffffffffffffffffffffffffffff163b119050919050565b60606000821415611a08576040518060400160405280600181526020017f30000000000000000000000000000000000000000000000000000000000000008152509050611b68565b600082905060005b60008214611a3a578080611a2390612e0a565b915050600a82611a339190612c8c565b9150611a10565b60008167ffffffffffffffff811115611a7c577f4e487b7100000000000000000000000000000000000000000000000000000000600052604160045260246000fd5b6040519080825280601f01601f191660200182016040528015611aae5781602001600182028036833780820191505090505b5090505b60008514611b6157600182611ac79190612cbd565b9150600a85611ad69190612e53565b6030611ae29190612c36565b60f81b818381518110611b1e577f4e487b7100000000000000000000000000000000000000000000000000000000600052603260045260246000fd5b60200101907effffffffffffffffffffffffffffffffffffffffffffffffffffffffffffff1916908160001a905350600a85611b5a9190612c8c565b9450611ab2565b8093505050505b919050565b600073ffffffffffffffffffffffffffffffffffffffff168273ffffffffffffffffffffffffffffffffffffffff161415611bdd576040517f08c379a0000000000000000000000000000000000000000000000000000000008152600401611bd490612a71565b60405180910390fd5b611be681610c59565b15611c26576040517f08c379a0000000000000000000000000000000000000000000000000000000008152600401611c1d90612971565b60405180910390fd5b611c326000838361155a565b6001600360008473ffffffffffffffffffffffffffffffffffffffff1673ffffffffffffffffffffffffffffffffffffffff1681526020019081526020016000206000828254611c829190612c36565b92505081905550816002600083815260200190815260200160002060006101000a81548173ffffffffffffffffffffffffffffffffffffffff021916908373ffffffffffffffffffffffffffffffffffffffff160217905550808273ffffffffffffffffffffffffffffffffffffffff16600073ffffffffffffffffffffffffffffffffffffffff167fddf252ad1be2c89b69c2b068fc378daa952ba7f163c4a11628f55a4df523b3ef60405160405180910390a4611d436000838361156a565b5050565b505050565b6008805490506009600083815260200190815260200160002081905550600881908060018154018082558091505060019003906000526020600020016000909190919091505550565b60006001611da284610953565b611dac9190612cbd565b9050600060076000848152602001908152602001600020549050818114611e91576000600660008673ffffffffffffffffffffffffffffffffffffffff1673ffffffffffffffffffffffffffffffffffffffff168152602001908152602001600020600084815260200190815260200160002054905080600660008773ffffffffffffffffffffffffffffffffffffffff1673ffffffffffffffffffffffffffffffffffffffff168152602001908152602001600020600084815260200190815260200160002081905550816007600083815260200190815260200160002081905550505b6007600084815260200190815260200160002060009055600660008573ffffffffffffffffffffffffffffffffffffffff1673ffffffffffffffffffffffffffffffffffffffff16815260200190815260200160002060008381526020019081526020016000206000905550505050565b60006001600880549050611f169190612cbd565b9050600060096000848152602001908152602001600020549050600060088381548110611f6c577f4e487b7100000000000000000000000000000000000000000000000000000000600052603260045260246000fd5b906000526020600020015490508060088381548110611fb4577f4e487b7100000000000000000000000000000000000000000000000000000000600052603260045260246000fd5b906000526020600020018190555081600960008381526020019081526020016000208190555060096000858152602001908152602001600020600090556008805480612029577f4e487b7100000000000000000000000000000000000000000000000000000000600052603160045260246000fd5b6001900381819060005260206000200160009055905550505050565b600061205083610953565b905081600660008573ffffffffffffffffffffffffffffffffffffffff1673ffffffffffffffffffffffffffffffffffffffff168152602001908152602001600020600083815260200190815260200160002081905550806007600084815260200190815260200160002081905550505050565b8280546120d090612da7565b90600052602060002090601f0160209004810192826120f25760008555612139565b82601f1061210b57805160ff1916838001178555612139565b82800160010185558215612139579182015b8281111561213857825182559160200191906001019061211d565b5b509050612146919061214a565b5090565b5b8082111561216357600081600090555060010161214b565b5090565b600061217a61217584612b91565b612b6c565b90508281526020810184848401111561219257600080fd5b61219d848285612d65565b509392505050565b60006121b86121b384612bc2565b612b6c565b9050828152602081018484840111156121d057600080fd5b6121db848285612d65565b509392505050565b6000813590506121f28161346d565b92915050565b60008135905061220781613484565b92915050565b60008135905061221c8161349b565b92915050565b6000815190506122318161349b565b92915050565b600082601f83011261224857600080fd5b8135612258848260208601612167565b91505092915050565b600082601f83011261227257600080fd5b81356122828482602086016121a5565b91505092915050565b60008135905061229a816134b2565b92915050565b6000602082840312156122b257600080fd5b60006122c0848285016121e3565b91505092915050565b600080604083850312156122dc57600080fd5b60006122ea858286016121e3565b92505060206122fb858286016121e3565b9150509250929050565b60008060006060848603121561231a57600080fd5b6000612328868287016121e3565b9350506020612339868287016121e3565b925050604061234a8682870161228b565b9150509250925092565b6000806000806080858703121561236a57600080fd5b6000612378878288016121e3565b9450506020612389878288016121e3565b935050604061239a8782880161228b565b925050606085013567ffffffffffffffff8111156123b757600080fd5b6123c387828801612237565b91505092959194509250565b600080604083850312156123e257600080fd5b60006123f0858286016121e3565b9250506020612401858286016121f8565b9150509250929050565b6000806040838503121561241e57600080fd5b600061242c858286016121e3565b925050602061243d8582860161228b565b9150509250929050565b60006020828403121561245957600080fd5b60006124678482850161220d565b91505092915050565b60006020828403121561248257600080fd5b600061249084828501612222565b91505092915050565b6000602082840312156124ab57600080fd5b600082013567ffffffffffffffff8111156124c557600080fd5b6124d184828501612261565b91505092915050565b6000602082840312156124ec57600080fd5b60006124fa8482850161228b565b91505092915050565b61250c81612cf1565b82525050565b61251b81612d03565b82525050565b600061252c82612bf3565b6125368185612c09565b9350612546818560208601612d74565b61254f81612f40565b840191505092915050565b600061256582612bfe565b61256f8185612c1a565b935061257f818560208601612d74565b61258881612f40565b840191505092915050565b600061259e82612bfe565b6125a88185612c2b565b93506125b8818560208601612d74565b80840191505092915050565b60006125d1602b83612c1a565b91506125dc82612f51565b604082019050919050565b60006125f4603283612c1a565b91506125ff82612fa0565b604082019050919050565b6000612617602583612c1a565b915061262282612fef565b604082019050919050565b600061263a601c83612c1a565b91506126458261303e565b602082019050919050565b600061265d602483612c1a565b915061266882613067565b604082019050919050565b6000612680601983612c1a565b915061268b826130b6565b602082019050919050565b60006126a3602c83612c1a565b91506126ae826130df565b604082019050919050565b60006126c6603883612c1a565b91506126d18261312e565b604082019050919050565b60006126e9602a83612c1a565b91506126f48261317d565b604082019050919050565b600061270c602983612c1a565b9150612717826131cc565b604082019050919050565b600061272f602e83612c1a565b915061273a8261321b565b604082019050919050565b6000612752602083612c1a565b915061275d8261326a565b602082019050919050565b6000612775603183612c1a565b915061278082613293565b604082019050919050565b6000612798602c83612c1a565b91506127a3826132e2565b604082019050919050565b60006127bb602f83612c1a565b91506127c682613331565b604082019050919050565b60006127de602183612c1a565b91506127e982613380565b604082019050919050565b6000612801603183612c1a565b915061280c826133cf565b604082019050919050565b6000612824602c83612c1a565b915061282f8261341e565b604082019050919050565b61284381612d5b565b82525050565b60006128558285612593565b91506128618284612593565b91508190509392505050565b60006020820190506128826000830184612503565b92915050565b600060808201905061289d6000830187612503565b6128aa6020830186612503565b6128b7604083018561283a565b81810360608301526128c98184612521565b905095945050505050565b60006020820190506128e96000830184612512565b92915050565b60006020820190508181036000830152612909818461255a565b905092915050565b6000602082019050818103600083015261292a816125c4565b9050919050565b6000602082019050818103600083015261294a816125e7565b9050919050565b6000602082019050818103600083015261296a8161260a565b9050919050565b6000602082019050818103600083015261298a8161262d565b9050919050565b600060208201905081810360008301526129aa81612650565b9050919050565b600060208201905081810360008301526129ca81612673565b9050919050565b600060208201905081810360008301526129ea81612696565b9050919050565b60006020820190508181036000830152612a0a816126b9565b9050919050565b60006020820190508181036000830152612a2a816126dc565b9050919050565b60006020820190508181036000830152612a4a816126ff565b9050919050565b60006020820190508181036000830152612a6a81612722565b9050919050565b60006020820190508181036000830152612a8a81612745565b9050919050565b60006020820190508181036000830152612aaa81612768565b9050919050565b60006020820190508181036000830152612aca8161278b565b9050919050565b60006020820190508181036000830152612aea816127ae565b9050919050565b60006020820190508181036000830152612b0a816127d1565b9050919050565b60006020820190508181036000830152612b2a816127f4565b9050919050565b60006020820190508181036000830152612b4a81612817565b9050919050565b6000602082019050612b66600083018461283a565b92915050565b6000612b76612b87565b9050612b828282612dd9565b919050565b6000604051905090565b600067ffffffffffffffff821115612bac57612bab612f11565b5b612bb582612f40565b9050602081019050919050565b600067ffffffffffffffff821115612bdd57612bdc612f11565b5b612be682612f40565b9050602081019050919050565b600081519050919050565b600081519050919050565b600082825260208201905092915050565b600082825260208201905092915050565b600081905092915050565b6000612c4182612d5b565b9150612c4c83612d5b565b9250827fffffffffffffffffffffffffffffffffffffffffffffffffffffffffffffffff03821115612c8157612c80612e84565b5b828201905092915050565b6000612c9782612d5b565b9150612ca283612d5b565b925082612cb257612cb1612eb3565b5b828204905092915050565b6000612cc882612d5b565b9150612cd383612d5b565b925082821015612ce657612ce5612e84565b5b828203905092915050565b6000612cfc82612d3b565b9050919050565b60008115159050919050565b60007fffffffff0000000000000000000000000000000000000000000000000000000082169050919050565b600073ffffffffffffffffffffffffffffffffffffffff82169050919050565b6000819050919050565b82818337600083830152505050565b60005b83811015612d92578082015181840152602081019050612d77565b83811115612da1576000848401525b50505050565b60006002820490506001821680612dbf57607f821691505b60208210811415612dd357612dd2612ee2565b5b50919050565b612de282612f40565b810181811067ffffffffffffffff82111715612e0157612e00612f11565b5b80604052505050565b6000612e1582612d5b565b91507fffffffffffffffffffffffffffffffffffffffffffffffffffffffffffffffff821415612e4857612e47612e84565b5b600182019050919050565b6000612e5e82612d5b565b9150612e6983612d5b565b925082612e7957612e78612eb3565b5b828206905092915050565b7f4e487b7100000000000000000000000000000000000000000000000000000000600052601160045260246000fd5b7f4e487b7100000000000000000000000000000000000000000000000000000000600052601260045260246000fd5b7f4e487b7100000000000000000000000000000000000000000000000000000000600052602260045260246000fd5b7f4e487b7100000000000000000000000000000000000000000000000000000000600052604160045260246000fd5b6000601f19601f8301169050919050565b7f455243373231456e756d657261626c653a206f776e657220696e646578206f7560008201527f74206f6620626f756e6473000000000000000000000000000000000000000000602082015250565b7f4552433732313a207472616e7366657220746f206e6f6e20455243373231526560008201527f63656976657220696d706c656d656e7465720000000000000000000000000000602082015250565b7f4552433732313a207472616e736665722066726f6d20696e636f72726563742060008201527f6f776e6572000000000000000000000000000000000000000000000000000000602082015250565b7f4552433732313a20746f6b656e20616c7265616479206d696e74656400000000600082015250565b7f4552433732313a207472616e7366657220746f20746865207a65726f2061646460008201527f7265737300000000000000000000000000000000000000000000000000000000602082015250565b7f4552433732313a20617070726f766520746f2063616c6c657200000000000000600082015250565b7f4552433732313a206f70657261746f7220717565727920666f72206e6f6e657860008201527f697374656e7420746f6b656e0000000000000000000000000000000000000000602082015250565b7f4552433732313a20617070726f76652063616c6c6572206973206e6f74206f7760008201527f6e6572206e6f7220617070726f76656420666f7220616c6c0000000000000000602082015250565b7f4552433732313a2062616c616e636520717565727920666f7220746865207a6560008201527f726f206164647265737300000000000000000000000000000000000000000000602082015250565b7f4552433732313a206f776e657220717565727920666f72206e6f6e657869737460008201527f656e7420746f6b656e0000000000000000000000000000000000000000000000602082015250565b7f45524337323155524953746f726167653a2055524920736574206f66206e6f6e60008201527f6578697374656e7420746f6b656e000000000000000000000000000000000000602082015250565b7f4552433732313a206d696e7420746f20746865207a65726f2061646472657373600082015250565b7f45524337323155524953746f726167653a2055524920717565727920666f722060008201527f6e6f6e6578697374656e7420746f6b656e000000000000000000000000000000602082015250565b7f4552433732313a20617070726f76656420717565727920666f72206e6f6e657860008201527f697374656e7420746f6b656e0000000000000000000000000000000000000000602082015250565b7f4552433732314d657461646174613a2055524920717565727920666f72206e6f60008201527f6e6578697374656e7420746f6b656e0000000000000000000000000000000000602082015250565b7f4552433732313a20617070726f76616c20746f2063757272656e74206f776e6560008201527f7200000000000000000000000000000000000000000000000000000000000000602082015250565b7f4552433732313a207472616e736665722063616c6c6572206973206e6f74206f60008201527f776e6572206e6f7220617070726f766564000000000000000000000000000000602082015250565b7f455243373231456e756d657261626c653a20676c6f62616c20696e646578206f60008201527f7574206f6620626f756e64730000000000000000000000000000000000000000602082015250565b61347681612cf1565b811461348157600080fd5b50565b61348d81612d03565b811461349857600080fd5b50565b6134a481612d0f565b81146134af57600080fd5b50565b6134bb81612d5b565b81146134c657600080fd5b5056fea2646970667358221220f70ca47763350bb05ca97fefe367663e5c2720292bd2061438544c94b48aebde64736f6c63430008040033",
  "linkReferences": {},
  "deployedLinkReferences": {}
}